{
  "_format": "hh-sol-artifact-1",
  "contractName": "moonturds",
  "sourceName": "contracts/moonturds.sol",
  "abi": [
    {
      "inputs": [
        {
          "internalType": "string",
          "name": "baseURI",
          "type": "string"
        }
      ],
      "stateMutability": "nonpayable",
      "type": "constructor"
    },
    {
      "anonymous": false,
      "inputs": [
        {
          "indexed": true,
          "internalType": "address",
          "name": "owner",
          "type": "address"
        },
        {
          "indexed": true,
          "internalType": "address",
          "name": "approved",
          "type": "address"
        },
        {
          "indexed": true,
          "internalType": "uint256",
          "name": "tokenId",
          "type": "uint256"
        }
      ],
      "name": "Approval",
      "type": "event"
    },
    {
      "anonymous": false,
      "inputs": [
        {
          "indexed": true,
          "internalType": "address",
          "name": "owner",
          "type": "address"
        },
        {
          "indexed": true,
          "internalType": "address",
          "name": "operator",
          "type": "address"
        },
        {
          "indexed": false,
          "internalType": "bool",
          "name": "approved",
          "type": "bool"
        }
      ],
      "name": "ApprovalForAll",
      "type": "event"
    },
    {
      "anonymous": false,
      "inputs": [
        {
          "indexed": true,
          "internalType": "address",
          "name": "previousOwner",
          "type": "address"
        },
        {
          "indexed": true,
          "internalType": "address",
          "name": "newOwner",
          "type": "address"
        }
      ],
      "name": "OwnershipTransferred",
      "type": "event"
    },
    {
      "anonymous": false,
      "inputs": [
        {
          "indexed": true,
          "internalType": "address",
          "name": "from",
          "type": "address"
        },
        {
          "indexed": true,
          "internalType": "address",
          "name": "to",
          "type": "address"
        },
        {
          "indexed": true,
          "internalType": "uint256",
          "name": "tokenId",
          "type": "uint256"
        }
      ],
      "name": "Transfer",
      "type": "event"
    },
    {
      "inputs": [],
      "name": "MAX_PER_MINT",
      "outputs": [
        {
          "internalType": "uint256",
          "name": "",
          "type": "uint256"
        }
      ],
      "stateMutability": "view",
      "type": "function"
    },
    {
      "inputs": [],
      "name": "MAX_SUPPLY",
      "outputs": [
        {
          "internalType": "uint256",
          "name": "",
          "type": "uint256"
        }
      ],
      "stateMutability": "view",
      "type": "function"
    },
    {
      "inputs": [],
      "name": "PRICE",
      "outputs": [
        {
          "internalType": "uint256",
          "name": "",
          "type": "uint256"
        }
      ],
      "stateMutability": "view",
      "type": "function"
    },
    {
      "inputs": [
        {
          "internalType": "address",
          "name": "to",
          "type": "address"
        },
        {
          "internalType": "uint256",
          "name": "tokenId",
          "type": "uint256"
        }
      ],
      "name": "approve",
      "outputs": [],
      "stateMutability": "nonpayable",
      "type": "function"
    },
    {
      "inputs": [
        {
          "internalType": "address",
          "name": "owner",
          "type": "address"
        }
      ],
      "name": "balanceOf",
      "outputs": [
        {
          "internalType": "uint256",
          "name": "",
          "type": "uint256"
        }
      ],
      "stateMutability": "view",
      "type": "function"
    },
    {
      "inputs": [],
      "name": "baseTokenURI",
      "outputs": [
        {
          "internalType": "string",
          "name": "",
          "type": "string"
        }
      ],
      "stateMutability": "view",
      "type": "function"
    },
    {
      "inputs": [
        {
          "internalType": "uint256",
          "name": "tokenId",
          "type": "uint256"
        }
      ],
      "name": "getApproved",
      "outputs": [
        {
          "internalType": "address",
          "name": "",
          "type": "address"
        }
      ],
      "stateMutability": "view",
      "type": "function"
    },
    {
      "inputs": [
        {
          "internalType": "address",
          "name": "owner",
          "type": "address"
        },
        {
          "internalType": "address",
          "name": "operator",
          "type": "address"
        }
      ],
      "name": "isApprovedForAll",
      "outputs": [
        {
          "internalType": "bool",
          "name": "",
          "type": "bool"
        }
      ],
      "stateMutability": "view",
      "type": "function"
    },
    {
      "inputs": [
        {
          "internalType": "uint256",
          "name": "_count",
          "type": "uint256"
        }
      ],
      "name": "mintNFTs",
      "outputs": [],
      "stateMutability": "payable",
      "type": "function"
    },
    {
      "inputs": [],
      "name": "name",
      "outputs": [
        {
          "internalType": "string",
          "name": "",
          "type": "string"
        }
      ],
      "stateMutability": "view",
      "type": "function"
    },
    {
      "inputs": [],
      "name": "owner",
      "outputs": [
        {
          "internalType": "address",
          "name": "",
          "type": "address"
        }
      ],
      "stateMutability": "view",
      "type": "function"
    },
    {
      "inputs": [
        {
          "internalType": "uint256",
          "name": "tokenId",
          "type": "uint256"
        }
      ],
      "name": "ownerOf",
      "outputs": [
        {
          "internalType": "address",
          "name": "",
          "type": "address"
        }
      ],
      "stateMutability": "view",
      "type": "function"
    },
    {
      "inputs": [],
      "name": "renounceOwnership",
      "outputs": [],
      "stateMutability": "nonpayable",
      "type": "function"
    },
    {
      "inputs": [
        {
          "internalType": "address",
          "name": "from",
          "type": "address"
        },
        {
          "internalType": "address",
          "name": "to",
          "type": "address"
        },
        {
          "internalType": "uint256",
          "name": "tokenId",
          "type": "uint256"
        }
      ],
      "name": "safeTransferFrom",
      "outputs": [],
      "stateMutability": "nonpayable",
      "type": "function"
    },
    {
      "inputs": [
        {
          "internalType": "address",
          "name": "from",
          "type": "address"
        },
        {
          "internalType": "address",
          "name": "to",
          "type": "address"
        },
        {
          "internalType": "uint256",
          "name": "tokenId",
          "type": "uint256"
        },
        {
          "internalType": "bytes",
          "name": "_data",
          "type": "bytes"
        }
      ],
      "name": "safeTransferFrom",
      "outputs": [],
      "stateMutability": "nonpayable",
      "type": "function"
    },
    {
      "inputs": [
        {
          "internalType": "address",
          "name": "operator",
          "type": "address"
        },
        {
          "internalType": "bool",
          "name": "approved",
          "type": "bool"
        }
      ],
      "name": "setApprovalForAll",
      "outputs": [],
      "stateMutability": "nonpayable",
      "type": "function"
    },
    {
      "inputs": [
        {
          "internalType": "string",
          "name": "_baseTokenURI",
          "type": "string"
        }
      ],
      "name": "setBaseURI",
      "outputs": [],
      "stateMutability": "nonpayable",
      "type": "function"
    },
    {
      "inputs": [
        {
          "internalType": "bytes4",
          "name": "interfaceId",
          "type": "bytes4"
        }
      ],
      "name": "supportsInterface",
      "outputs": [
        {
          "internalType": "bool",
          "name": "",
          "type": "bool"
        }
      ],
      "stateMutability": "view",
      "type": "function"
    },
    {
      "inputs": [],
      "name": "symbol",
      "outputs": [
        {
          "internalType": "string",
          "name": "",
          "type": "string"
        }
      ],
      "stateMutability": "view",
      "type": "function"
    },
    {
      "inputs": [
        {
          "internalType": "uint256",
          "name": "index",
          "type": "uint256"
        }
      ],
      "name": "tokenByIndex",
      "outputs": [
        {
          "internalType": "uint256",
          "name": "",
          "type": "uint256"
        }
      ],
      "stateMutability": "view",
      "type": "function"
    },
    {
      "inputs": [
        {
          "internalType": "address",
          "name": "owner",
          "type": "address"
        },
        {
          "internalType": "uint256",
          "name": "index",
          "type": "uint256"
        }
      ],
      "name": "tokenOfOwnerByIndex",
      "outputs": [
        {
          "internalType": "uint256",
          "name": "",
          "type": "uint256"
        }
      ],
      "stateMutability": "view",
      "type": "function"
    },
    {
      "inputs": [
        {
          "internalType": "uint256",
          "name": "tokenId",
          "type": "uint256"
        }
      ],
      "name": "tokenURI",
      "outputs": [
        {
          "internalType": "string",
          "name": "",
          "type": "string"
        }
      ],
      "stateMutability": "view",
      "type": "function"
    },
    {
      "inputs": [
        {
          "internalType": "address",
          "name": "_owner",
          "type": "address"
        }
      ],
      "name": "tokensOfOwner",
      "outputs": [
        {
          "internalType": "uint256[]",
          "name": "",
          "type": "uint256[]"
        }
      ],
      "stateMutability": "view",
      "type": "function"
    },
    {
      "inputs": [],
      "name": "totalSupply",
      "outputs": [
        {
          "internalType": "uint256",
          "name": "",
          "type": "uint256"
        }
      ],
      "stateMutability": "view",
      "type": "function"
    },
    {
      "inputs": [
        {
          "internalType": "address",
          "name": "from",
          "type": "address"
        },
        {
          "internalType": "address",
          "name": "to",
          "type": "address"
        },
        {
          "internalType": "uint256",
          "name": "tokenId",
          "type": "uint256"
        }
      ],
      "name": "transferFrom",
      "outputs": [],
      "stateMutability": "nonpayable",
      "type": "function"
    },
    {
      "inputs": [
        {
          "internalType": "address",
          "name": "newOwner",
          "type": "address"
        }
      ],
      "name": "transferOwnership",
      "outputs": [],
      "stateMutability": "nonpayable",
      "type": "function"
    },
    {
      "inputs": [],
      "name": "withdraw",
      "outputs": [],
      "stateMutability": "payable",
      "type": "function"
    }
  ],
  "bytecode": "0x60806040523480156200001157600080fd5b50604051620046be380380620046be8339818101604052810190620000379190620003d4565b6040518060400160405280600981526020017f6d6f6f6e747572647300000000000000000000000000000000000000000000008152506040518060400160405280600481526020017f4d4e5453000000000000000000000000000000000000000000000000000000008152508160009080519060200190620000bb929190620002b2565b508060019080519060200190620000d4929190620002b2565b505050620000f7620000eb6200010f60201b60201c565b6200011760201b60201c565b6200010881620001dd60201b60201c565b506200060c565b600033905090565b6000600a60009054906101000a900473ffffffffffffffffffffffffffffffffffffffff16905081600a60006101000a81548173ffffffffffffffffffffffffffffffffffffffff021916908373ffffffffffffffffffffffffffffffffffffffff1602179055508173ffffffffffffffffffffffffffffffffffffffff168173ffffffffffffffffffffffffffffffffffffffff167f8be0079c531659141344cd1fd0a4f28419497f9722a3daafe3b4186f6b6457e060405160405180910390a35050565b620001ed6200010f60201b60201c565b73ffffffffffffffffffffffffffffffffffffffff16620002136200028860201b60201c565b73ffffffffffffffffffffffffffffffffffffffff16146200026c576040517f08c379a0000000000000000000000000000000000000000000000000000000008152600401620002639062000440565b60405180910390fd5b80600c908051906020019062000284929190620002b2565b5050565b6000600a60009054906101000a900473ffffffffffffffffffffffffffffffffffffffff16905090565b828054620002c09062000508565b90600052602060002090601f016020900481019282620002e4576000855562000330565b82601f10620002ff57805160ff191683800117855562000330565b8280016001018555821562000330579182015b828111156200032f57825182559160200191906001019062000312565b5b5090506200033f919062000343565b5090565b5b808211156200035e57600081600090555060010162000344565b5090565b60006200037962000373846200048b565b62000462565b9050828152602081018484840111156200039257600080fd5b6200039f848285620004d2565b509392505050565b600082601f830112620003b957600080fd5b8151620003cb84826020860162000362565b91505092915050565b600060208284031215620003e757600080fd5b600082015167ffffffffffffffff8111156200040257600080fd5b6200041084828501620003a7565b91505092915050565b600062000428602083620004c1565b91506200043582620005e3565b602082019050919050565b600060208201905081810360008301526200045b8162000419565b9050919050565b60006200046e62000481565b90506200047c82826200053e565b919050565b6000604051905090565b600067ffffffffffffffff821115620004a957620004a8620005a3565b5b620004b482620005d2565b9050602081019050919050565b600082825260208201905092915050565b60005b83811015620004f2578082015181840152602081019050620004d5565b8381111562000502576000848401525b50505050565b600060028204905060018216806200052157607f821691505b6020821081141562000538576200053762000574565b5b50919050565b6200054982620005d2565b810181811067ffffffffffffffff821117156200056b576200056a620005a3565b5b80604052505050565b7f4e487b7100000000000000000000000000000000000000000000000000000000600052602260045260246000fd5b7f4e487b7100000000000000000000000000000000000000000000000000000000600052604160045260246000fd5b6000601f19601f8301169050919050565b7f4f776e61626c653a2063616c6c6572206973206e6f7420746865206f776e6572600082015250565b6140a2806200061c6000396000f3fe60806040526004361061019c5760003560e01c806355f804b3116100ec57806395d89b411161008a578063c87b56dd11610064578063c87b56dd146105ac578063d547cfb7146105e9578063e985e9c514610614578063f2fde38b146106515761019c565b806395d89b411461052f578063a22cb4651461055a578063b88d4fde146105835761019c565b8063715018a6116100c6578063715018a6146104855780638462151c1461049c5780638d859f3e146104d95780638da5cb5b146105045761019c565b806355f804b3146103e25780636352211e1461040b57806370a08231146104485761019c565b806323b872dd116101595780633b4b1381116101335780633b4b1381146103565780633ccfd60b1461037257806342842e0e1461037c5780634f6ccce7146103a55761019c565b806323b872dd146102c55780632f745c59146102ee57806332cb6b0c1461032b5761019c565b806301ffc9a7146101a157806306fdde03146101de578063081812fc14610209578063095ea7b31461024657806309d42b301461026f57806318160ddd1461029a575b600080fd5b3480156101ad57600080fd5b506101c860048036038101906101c39190612c4e565b61067a565b6040516101d59190613269565b60405180910390f35b3480156101ea57600080fd5b506101f36106f4565b6040516102009190613284565b60405180910390f35b34801561021557600080fd5b50610230600480360381019061022b9190612ce1565b610786565b60405161023d91906131e0565b60405180910390f35b34801561025257600080fd5b5061026d60048036038101906102689190612c12565b61080b565b005b34801561027b57600080fd5b50610284610923565b6040516102919190613586565b60405180910390f35b3480156102a657600080fd5b506102af610928565b6040516102bc9190613586565b60405180910390f35b3480156102d157600080fd5b506102ec60048036038101906102e79190612b0c565b610935565b005b3480156102fa57600080fd5b5061031560048036038101906103109190612c12565b610995565b6040516103229190613586565b60405180910390f35b34801561033757600080fd5b50610340610a3a565b60405161034d9190613586565b60405180910390f35b610370600480360381019061036b9190612ce1565b610a3f565b005b61037a610b7a565b005b34801561038857600080fd5b506103a3600480360381019061039e9190612b0c565b610cee565b005b3480156103b157600080fd5b506103cc60048036038101906103c79190612ce1565b610d0e565b6040516103d99190613586565b60405180910390f35b3480156103ee57600080fd5b5061040960048036038101906104049190612ca0565b610da5565b005b34801561041757600080fd5b50610432600480360381019061042d9190612ce1565b610e3b565b60405161043f91906131e0565b60405180910390f35b34801561045457600080fd5b5061046f600480360381019061046a9190612aa7565b610eed565b60405161047c9190613586565b60405180910390f35b34801561049157600080fd5b5061049a610fa5565b005b3480156104a857600080fd5b506104c360048036038101906104be9190612aa7565b61102d565b6040516104d09190613247565b60405180910390f35b3480156104e557600080fd5b506104ee611127565b6040516104fb9190613586565b60405180910390f35b34801561051057600080fd5b50610519611132565b60405161052691906131e0565b60405180910390f35b34801561053b57600080fd5b5061054461115c565b6040516105519190613284565b60405180910390f35b34801561056657600080fd5b50610581600480360381019061057c9190612bd6565b6111ee565b005b34801561058f57600080fd5b506105aa60048036038101906105a59190612b5b565b611204565b005b3480156105b857600080fd5b506105d360048036038101906105ce9190612ce1565b611266565b6040516105e09190613284565b60405180910390f35b3480156105f557600080fd5b506105fe61130d565b60405161060b9190613284565b60405180910390f35b34801561062057600080fd5b5061063b60048036038101906106369190612ad0565b61139b565b6040516106489190613269565b60405180910390f35b34801561065d57600080fd5b5061067860048036038101906106739190612aa7565b61142f565b005b60007f780e9d63000000000000000000000000000000000000000000000000000000007bffffffffffffffffffffffffffffffffffffffffffffffffffffffff1916827bffffffffffffffffffffffffffffffffffffffffffffffffffffffff191614806106ed57506106ec82611527565b5b9050919050565b6060600080546107039061387a565b80601f016020809104026020016040519081016040528092919081815260200182805461072f9061387a565b801561077c5780601f106107515761010080835404028352916020019161077c565b820191906000526020600020905b81548152906001019060200180831161075f57829003601f168201915b5050505050905090565b600061079182611609565b6107d0576040517f08c379a00000000000000000000000000000000000000000000000000000000081526004016107c790613486565b60405180910390fd5b6004600083815260200190815260200160002060009054906101000a900473ffffffffffffffffffffffffffffffffffffffff169050919050565b600061081682610e3b565b90508073ffffffffffffffffffffffffffffffffffffffff168373ffffffffffffffffffffffffffffffffffffffff161415610887576040517f08c379a000000000000000000000000000000000000000000000000000000000815260040161087e906134e6565b60405180910390fd5b8073ffffffffffffffffffffffffffffffffffffffff166108a6611675565b73ffffffffffffffffffffffffffffffffffffffff1614806108d557506108d4816108cf611675565b61139b565b5b610914576040517f08c379a000000000000000000000000000000000000000000000000000000000815260040161090b906133e6565b60405180910390fd5b61091e838361167d565b505050565b606481565b6000600880549050905090565b610946610940611675565b82611736565b610985576040517f08c379a000000000000000000000000000000000000000000000000000000000815260040161097c90613526565b60405180910390fd5b610990838383611814565b505050565b60006109a083610eed565b82106109e1576040517f08c379a00000000000000000000000000000000000000000000000000000000081526004016109d8906132a6565b60405180910390fd5b600660008473ffffffffffffffffffffffffffffffffffffffff1673ffffffffffffffffffffffffffffffffffffffff168152602001908152602001600020600083815260200190815260200160002054905092915050565b606481565b6000610a4b600b611a7b565b90506064610a628383611a8990919063ffffffff16565b1115610aa3576040517f08c379a0000000000000000000000000000000000000000000000000000000008152600401610a9a90613566565b60405180910390fd5b600082118015610ab4575060648211155b610af3576040517f08c379a0000000000000000000000000000000000000000000000000000000008152600401610aea906133a6565b60405180910390fd5b610b0d82662386f26fc10000611a9f90919063ffffffff16565b341015610b4f576040517f08c379a0000000000000000000000000000000000000000000000000000000008152600401610b4690613346565b60405180910390fd5b60005b82811015610b7557610b62611ab5565b8080610b6d906138dd565b915050610b52565b505050565b610b82611675565b73ffffffffffffffffffffffffffffffffffffffff16610ba0611132565b73ffffffffffffffffffffffffffffffffffffffff1614610bf6576040517f08c379a0000000000000000000000000000000000000000000000000000000008152600401610bed906134a6565b60405180910390fd5b600047905060008111610c3e576040517f08c379a0000000000000000000000000000000000000000000000000000000008152600401610c3590613466565b60405180910390fd5b60003373ffffffffffffffffffffffffffffffffffffffff1682604051610c64906131cb565b60006040518083038185875af1925050503d8060008114610ca1576040519150601f19603f3d011682016040523d82523d6000602084013e610ca6565b606091505b5050905080610cea576040517f08c379a0000000000000000000000000000000000000000000000000000000008152600401610ce190613506565b60405180910390fd5b5050565b610d0983838360405180602001604052806000815250611204565b505050565b6000610d18610928565b8210610d59576040517f08c379a0000000000000000000000000000000000000000000000000000000008152600401610d5090613546565b60405180910390fd5b60088281548110610d93577f4e487b7100000000000000000000000000000000000000000000000000000000600052603260045260246000fd5b90600052602060002001549050919050565b610dad611675565b73ffffffffffffffffffffffffffffffffffffffff16610dcb611132565b73ffffffffffffffffffffffffffffffffffffffff1614610e21576040517f08c379a0000000000000000000000000000000000000000000000000000000008152600401610e18906134a6565b60405180910390fd5b80600c9080519060200190610e379291906128cb565b5050565b6000806002600084815260200190815260200160002060009054906101000a900473ffffffffffffffffffffffffffffffffffffffff169050600073ffffffffffffffffffffffffffffffffffffffff168173ffffffffffffffffffffffffffffffffffffffff161415610ee4576040517f08c379a0000000000000000000000000000000000000000000000000000000008152600401610edb90613426565b60405180910390fd5b80915050919050565b60008073ffffffffffffffffffffffffffffffffffffffff168273ffffffffffffffffffffffffffffffffffffffff161415610f5e576040517f08c379a0000000000000000000000000000000000000000000000000000000008152600401610f5590613406565b60405180910390fd5b600360008373ffffffffffffffffffffffffffffffffffffffff1673ffffffffffffffffffffffffffffffffffffffff168152602001908152602001600020549050919050565b610fad611675565b73ffffffffffffffffffffffffffffffffffffffff16610fcb611132565b73ffffffffffffffffffffffffffffffffffffffff1614611021576040517f08c379a0000000000000000000000000000000000000000000000000000000008152600401611018906134a6565b60405180910390fd5b61102b6000611ada565b565b6060600061103a83610eed565b905060008167ffffffffffffffff81111561107e577f4e487b7100000000000000000000000000000000000000000000000000000000600052604160045260246000fd5b6040519080825280602002602001820160405280156110ac5781602001602082028036833780820191505090505b50905060005b8281101561111c576110c48582610995565b8282815181106110fd577f4e487b7100000000000000000000000000000000000000000000000000000000600052603260045260246000fd5b6020026020010181815250508080611114906138dd565b9150506110b2565b508092505050919050565b662386f26fc1000081565b6000600a60009054906101000a900473ffffffffffffffffffffffffffffffffffffffff16905090565b60606001805461116b9061387a565b80601f01602080910402602001604051908101604052809291908181526020018280546111979061387a565b80156111e45780601f106111b9576101008083540402835291602001916111e4565b820191906000526020600020905b8154815290600101906020018083116111c757829003601f168201915b5050505050905090565b6112006111f9611675565b8383611ba0565b5050565b61121561120f611675565b83611736565b611254576040517f08c379a000000000000000000000000000000000000000000000000000000000815260040161124b90613526565b60405180910390fd5b61126084848484611d0d565b50505050565b606061127182611609565b6112b0576040517f08c379a00000000000000000000000000000000000000000000000000000000081526004016112a7906134c6565b60405180910390fd5b60006112ba611d69565b905060008151116112da5760405180602001604052806000815250611305565b806112e484611dfb565b6040516020016112f59291906131a7565b6040516020818303038152906040525b915050919050565b600c805461131a9061387a565b80601f01602080910402602001604051908101604052809291908181526020018280546113469061387a565b80156113935780601f1061136857610100808354040283529160200191611393565b820191906000526020600020905b81548152906001019060200180831161137657829003601f168201915b505050505081565b6000600560008473ffffffffffffffffffffffffffffffffffffffff1673ffffffffffffffffffffffffffffffffffffffff16815260200190815260200160002060008373ffffffffffffffffffffffffffffffffffffffff1673ffffffffffffffffffffffffffffffffffffffff16815260200190815260200160002060009054906101000a900460ff16905092915050565b611437611675565b73ffffffffffffffffffffffffffffffffffffffff16611455611132565b73ffffffffffffffffffffffffffffffffffffffff16146114ab576040517f08c379a00000000000000000000000000000000000000000000000000000000081526004016114a2906134a6565b60405180910390fd5b600073ffffffffffffffffffffffffffffffffffffffff168173ffffffffffffffffffffffffffffffffffffffff16141561151b576040517f08c379a0000000000000000000000000000000000000000000000000000000008152600401611512906132e6565b60405180910390fd5b61152481611ada565b50565b60007f80ac58cd000000000000000000000000000000000000000000000000000000007bffffffffffffffffffffffffffffffffffffffffffffffffffffffff1916827bffffffffffffffffffffffffffffffffffffffffffffffffffffffff191614806115f257507f5b5e139f000000000000000000000000000000000000000000000000000000007bffffffffffffffffffffffffffffffffffffffffffffffffffffffff1916827bffffffffffffffffffffffffffffffffffffffffffffffffffffffff1916145b80611602575061160182611fa8565b5b9050919050565b60008073ffffffffffffffffffffffffffffffffffffffff166002600084815260200190815260200160002060009054906101000a900473ffffffffffffffffffffffffffffffffffffffff1673ffffffffffffffffffffffffffffffffffffffff1614159050919050565b600033905090565b816004600083815260200190815260200160002060006101000a81548173ffffffffffffffffffffffffffffffffffffffff021916908373ffffffffffffffffffffffffffffffffffffffff160217905550808273ffffffffffffffffffffffffffffffffffffffff166116f083610e3b565b73ffffffffffffffffffffffffffffffffffffffff167f8c5be1e5ebec7d5bd14f71427d1e84f3dd0314c0f7b2291e5b200ac8c7c3b92560405160405180910390a45050565b600061174182611609565b611780576040517f08c379a0000000000000000000000000000000000000000000000000000000008152600401611777906133c6565b60405180910390fd5b600061178b83610e3b565b90508073ffffffffffffffffffffffffffffffffffffffff168473ffffffffffffffffffffffffffffffffffffffff1614806117fa57508373ffffffffffffffffffffffffffffffffffffffff166117e284610786565b73ffffffffffffffffffffffffffffffffffffffff16145b8061180b575061180a818561139b565b5b91505092915050565b8273ffffffffffffffffffffffffffffffffffffffff1661183482610e3b565b73ffffffffffffffffffffffffffffffffffffffff161461188a576040517f08c379a000000000000000000000000000000000000000000000000000000000815260040161188190613306565b60405180910390fd5b600073ffffffffffffffffffffffffffffffffffffffff168273ffffffffffffffffffffffffffffffffffffffff1614156118fa576040517f08c379a00000000000000000000000000000000000000000000000000000000081526004016118f190613366565b60405180910390fd5b611905838383612012565b61191060008261167d565b6001600360008573ffffffffffffffffffffffffffffffffffffffff1673ffffffffffffffffffffffffffffffffffffffff16815260200190815260200160002060008282546119609190613790565b925050819055506001600360008473ffffffffffffffffffffffffffffffffffffffff1673ffffffffffffffffffffffffffffffffffffffff16815260200190815260200160002060008282546119b791906136af565b92505081905550816002600083815260200190815260200160002060006101000a81548173ffffffffffffffffffffffffffffffffffffffff021916908373ffffffffffffffffffffffffffffffffffffffff160217905550808273ffffffffffffffffffffffffffffffffffffffff168473ffffffffffffffffffffffffffffffffffffffff167fddf252ad1be2c89b69c2b068fc378daa952ba7f163c4a11628f55a4df523b3ef60405160405180910390a4611a76838383612126565b505050565b600081600001549050919050565b60008183611a9791906136af565b905092915050565b60008183611aad9190613736565b905092915050565b6000611ac1600b611a7b565b9050611acd338261212b565b611ad7600b612149565b50565b6000600a60009054906101000a900473ffffffffffffffffffffffffffffffffffffffff16905081600a60006101000a81548173ffffffffffffffffffffffffffffffffffffffff021916908373ffffffffffffffffffffffffffffffffffffffff1602179055508173ffffffffffffffffffffffffffffffffffffffff168173ffffffffffffffffffffffffffffffffffffffff167f8be0079c531659141344cd1fd0a4f28419497f9722a3daafe3b4186f6b6457e060405160405180910390a35050565b8173ffffffffffffffffffffffffffffffffffffffff168373ffffffffffffffffffffffffffffffffffffffff161415611c0f576040517f08c379a0000000000000000000000000000000000000000000000000000000008152600401611c0690613386565b60405180910390fd5b80600560008573ffffffffffffffffffffffffffffffffffffffff1673ffffffffffffffffffffffffffffffffffffffff16815260200190815260200160002060008473ffffffffffffffffffffffffffffffffffffffff1673ffffffffffffffffffffffffffffffffffffffff16815260200190815260200160002060006101000a81548160ff0219169083151502179055508173ffffffffffffffffffffffffffffffffffffffff168373ffffffffffffffffffffffffffffffffffffffff167f17307eab39ab6107e8899845ad3d59bd9653f200f220920489ca2b5937696c3183604051611d009190613269565b60405180910390a3505050565b611d18848484611814565b611d248484848461215f565b611d63576040517f08c379a0000000000000000000000000000000000000000000000000000000008152600401611d5a906132c6565b60405180910390fd5b50505050565b6060600c8054611d789061387a565b80601f0160208091040260200160405190810160405280929190818152602001828054611da49061387a565b8015611df15780601f10611dc657610100808354040283529160200191611df1565b820191906000526020600020905b815481529060010190602001808311611dd457829003601f168201915b5050505050905090565b60606000821415611e43576040518060400160405280600181526020017f30000000000000000000000000000000000000000000000000000000000000008152509050611fa3565b600082905060005b60008214611e75578080611e5e906138dd565b915050600a82611e6e9190613705565b9150611e4b565b60008167ffffffffffffffff811115611eb7577f4e487b7100000000000000000000000000000000000000000000000000000000600052604160045260246000fd5b6040519080825280601f01601f191660200182016040528015611ee95781602001600182028036833780820191505090505b5090505b60008514611f9c57600182611f029190613790565b9150600a85611f119190613926565b6030611f1d91906136af565b60f81b818381518110611f59577f4e487b7100000000000000000000000000000000000000000000000000000000600052603260045260246000fd5b60200101907effffffffffffffffffffffffffffffffffffffffffffffffffffffffffffff1916908160001a905350600a85611f959190613705565b9450611eed565b8093505050505b919050565b60007f01ffc9a7000000000000000000000000000000000000000000000000000000007bffffffffffffffffffffffffffffffffffffffffffffffffffffffff1916827bffffffffffffffffffffffffffffffffffffffffffffffffffffffff1916149050919050565b61201d8383836122f6565b600073ffffffffffffffffffffffffffffffffffffffff168373ffffffffffffffffffffffffffffffffffffffff1614156120605761205b816122fb565b61209f565b8173ffffffffffffffffffffffffffffffffffffffff168373ffffffffffffffffffffffffffffffffffffffff161461209e5761209d8382612344565b5b5b600073ffffffffffffffffffffffffffffffffffffffff168273ffffffffffffffffffffffffffffffffffffffff1614156120e2576120dd816124b1565b612121565b8273ffffffffffffffffffffffffffffffffffffffff168273ffffffffffffffffffffffffffffffffffffffff16146121205761211f82826125f4565b5b5b505050565b505050565b612145828260405180602001604052806000815250612673565b5050565b6001816000016000828254019250508190555050565b60006121808473ffffffffffffffffffffffffffffffffffffffff166126ce565b156122e9578373ffffffffffffffffffffffffffffffffffffffff1663150b7a026121a9611675565b8786866040518563ffffffff1660e01b81526004016121cb94939291906131fb565b602060405180830381600087803b1580156121e557600080fd5b505af192505050801561221657506040513d601f19601f820116820180604052508101906122139190612c77565b60015b612299573d8060008114612246576040519150601f19603f3d011682016040523d82523d6000602084013e61224b565b606091505b50600081511415612291576040517f08c379a0000000000000000000000000000000000000000000000000000000008152600401612288906132c6565b60405180910390fd5b805181602001fd5b63150b7a0260e01b7bffffffffffffffffffffffffffffffffffffffffffffffffffffffff1916817bffffffffffffffffffffffffffffffffffffffffffffffffffffffff1916149150506122ee565b600190505b949350505050565b505050565b6008805490506009600083815260200190815260200160002081905550600881908060018154018082558091505060019003906000526020600020016000909190919091505550565b6000600161235184610eed565b61235b9190613790565b9050600060076000848152602001908152602001600020549050818114612440576000600660008673ffffffffffffffffffffffffffffffffffffffff1673ffffffffffffffffffffffffffffffffffffffff168152602001908152602001600020600084815260200190815260200160002054905080600660008773ffffffffffffffffffffffffffffffffffffffff1673ffffffffffffffffffffffffffffffffffffffff168152602001908152602001600020600084815260200190815260200160002081905550816007600083815260200190815260200160002081905550505b6007600084815260200190815260200160002060009055600660008573ffffffffffffffffffffffffffffffffffffffff1673ffffffffffffffffffffffffffffffffffffffff16815260200190815260200160002060008381526020019081526020016000206000905550505050565b600060016008805490506124c59190613790565b905060006009600084815260200190815260200160002054905060006008838154811061251b577f4e487b7100000000000000000000000000000000000000000000000000000000600052603260045260246000fd5b906000526020600020015490508060088381548110612563577f4e487b7100000000000000000000000000000000000000000000000000000000600052603260045260246000fd5b9060005260206000200181905550816009600083815260200190815260200160002081905550600960008581526020019081526020016000206000905560088054806125d8577f4e487b7100000000000000000000000000000000000000000000000000000000600052603160045260246000fd5b6001900381819060005260206000200160009055905550505050565b60006125ff83610eed565b905081600660008573ffffffffffffffffffffffffffffffffffffffff1673ffffffffffffffffffffffffffffffffffffffff168152602001908152602001600020600083815260200190815260200160002081905550806007600084815260200190815260200160002081905550505050565b61267d83836126f1565b61268a600084848461215f565b6126c9576040517f08c379a00000000000000000000000000000000000000000000000000000000081526004016126c0906132c6565b60405180910390fd5b505050565b6000808273ffffffffffffffffffffffffffffffffffffffff163b119050919050565b600073ffffffffffffffffffffffffffffffffffffffff168273ffffffffffffffffffffffffffffffffffffffff161415612761576040517f08c379a000000000000000000000000000000000000000000000000000000000815260040161275890613446565b60405180910390fd5b61276a81611609565b156127aa576040517f08c379a00000000000000000000000000000000000000000000000000000000081526004016127a190613326565b60405180910390fd5b6127b660008383612012565b6001600360008473ffffffffffffffffffffffffffffffffffffffff1673ffffffffffffffffffffffffffffffffffffffff168152602001908152602001600020600082825461280691906136af565b92505081905550816002600083815260200190815260200160002060006101000a81548173ffffffffffffffffffffffffffffffffffffffff021916908373ffffffffffffffffffffffffffffffffffffffff160217905550808273ffffffffffffffffffffffffffffffffffffffff16600073ffffffffffffffffffffffffffffffffffffffff167fddf252ad1be2c89b69c2b068fc378daa952ba7f163c4a11628f55a4df523b3ef60405160405180910390a46128c760008383612126565b5050565b8280546128d79061387a565b90600052602060002090601f0160209004810192826128f95760008555612940565b82601f1061291257805160ff1916838001178555612940565b82800160010185558215612940579182015b8281111561293f578251825591602001919060010190612924565b5b50905061294d9190612951565b5090565b5b8082111561296a576000816000905550600101612952565b5090565b600061298161297c846135c6565b6135a1565b90508281526020810184848401111561299957600080fd5b6129a4848285613838565b509392505050565b60006129bf6129ba846135f7565b6135a1565b9050828152602081018484840111156129d757600080fd5b6129e2848285613838565b509392505050565b6000813590506129f981614010565b92915050565b600081359050612a0e81614027565b92915050565b600081359050612a238161403e565b92915050565b600081519050612a388161403e565b92915050565b600082601f830112612a4f57600080fd5b8135612a5f84826020860161296e565b91505092915050565b600082601f830112612a7957600080fd5b8135612a898482602086016129ac565b91505092915050565b600081359050612aa181614055565b92915050565b600060208284031215612ab957600080fd5b6000612ac7848285016129ea565b91505092915050565b60008060408385031215612ae357600080fd5b6000612af1858286016129ea565b9250506020612b02858286016129ea565b9150509250929050565b600080600060608486031215612b2157600080fd5b6000612b2f868287016129ea565b9350506020612b40868287016129ea565b9250506040612b5186828701612a92565b9150509250925092565b60008060008060808587031215612b7157600080fd5b6000612b7f878288016129ea565b9450506020612b90878288016129ea565b9350506040612ba187828801612a92565b925050606085013567ffffffffffffffff811115612bbe57600080fd5b612bca87828801612a3e565b91505092959194509250565b60008060408385031215612be957600080fd5b6000612bf7858286016129ea565b9250506020612c08858286016129ff565b9150509250929050565b60008060408385031215612c2557600080fd5b6000612c33858286016129ea565b9250506020612c4485828601612a92565b9150509250929050565b600060208284031215612c6057600080fd5b6000612c6e84828501612a14565b91505092915050565b600060208284031215612c8957600080fd5b6000612c9784828501612a29565b91505092915050565b600060208284031215612cb257600080fd5b600082013567ffffffffffffffff811115612ccc57600080fd5b612cd884828501612a68565b91505092915050565b600060208284031215612cf357600080fd5b6000612d0184828501612a92565b91505092915050565b6000612d168383613189565b60208301905092915050565b612d2b816137c4565b82525050565b6000612d3c82613638565b612d468185613666565b9350612d5183613628565b8060005b83811015612d82578151612d698882612d0a565b9750612d7483613659565b925050600181019050612d55565b5085935050505092915050565b612d98816137d6565b82525050565b6000612da982613643565b612db38185613677565b9350612dc3818560208601613847565b612dcc81613a13565b840191505092915050565b6000612de28261364e565b612dec8185613693565b9350612dfc818560208601613847565b612e0581613a13565b840191505092915050565b6000612e1b8261364e565b612e2581856136a4565b9350612e35818560208601613847565b80840191505092915050565b6000612e4e602b83613693565b9150612e5982613a24565b604082019050919050565b6000612e71603283613693565b9150612e7c82613a73565b604082019050919050565b6000612e94602683613693565b9150612e9f82613ac2565b604082019050919050565b6000612eb7602583613693565b9150612ec282613b11565b604082019050919050565b6000612eda601c83613693565b9150612ee582613b60565b602082019050919050565b6000612efd601483613693565b9150612f0882613b89565b602082019050919050565b6000612f20602483613693565b9150612f2b82613bb2565b604082019050919050565b6000612f43601983613693565b9150612f4e82613c01565b602082019050919050565b6000612f66602583613693565b9150612f7182613c2a565b604082019050919050565b6000612f89602c83613693565b9150612f9482613c79565b604082019050919050565b6000612fac603883613693565b9150612fb782613cc8565b604082019050919050565b6000612fcf602a83613693565b9150612fda82613d17565b604082019050919050565b6000612ff2602983613693565b9150612ffd82613d66565b604082019050919050565b6000613015602083613693565b915061302082613db5565b602082019050919050565b6000613038601983613693565b915061304382613dde565b602082019050919050565b600061305b602c83613693565b915061306682613e07565b604082019050919050565b600061307e602083613693565b915061308982613e56565b602082019050919050565b60006130a1602f83613693565b91506130ac82613e7f565b604082019050919050565b60006130c4602183613693565b91506130cf82613ece565b604082019050919050565b60006130e7600083613688565b91506130f282613f1d565b600082019050919050565b600061310a601083613693565b915061311582613f20565b602082019050919050565b600061312d603183613693565b915061313882613f49565b604082019050919050565b6000613150602c83613693565b915061315b82613f98565b604082019050919050565b6000613173601183613693565b915061317e82613fe7565b602082019050919050565b6131928161382e565b82525050565b6131a18161382e565b82525050565b60006131b38285612e10565b91506131bf8284612e10565b91508190509392505050565b60006131d6826130da565b9150819050919050565b60006020820190506131f56000830184612d22565b92915050565b60006080820190506132106000830187612d22565b61321d6020830186612d22565b61322a6040830185613198565b818103606083015261323c8184612d9e565b905095945050505050565b600060208201905081810360008301526132618184612d31565b905092915050565b600060208201905061327e6000830184612d8f565b92915050565b6000602082019050818103600083015261329e8184612dd7565b905092915050565b600060208201905081810360008301526132bf81612e41565b9050919050565b600060208201905081810360008301526132df81612e64565b9050919050565b600060208201905081810360008301526132ff81612e87565b9050919050565b6000602082019050818103600083015261331f81612eaa565b9050919050565b6000602082019050818103600083015261333f81612ecd565b9050919050565b6000602082019050818103600083015261335f81612ef0565b9050919050565b6000602082019050818103600083015261337f81612f13565b9050919050565b6000602082019050818103600083015261339f81612f36565b9050919050565b600060208201905081810360008301526133bf81612f59565b9050919050565b600060208201905081810360008301526133df81612f7c565b9050919050565b600060208201905081810360008301526133ff81612f9f565b9050919050565b6000602082019050818103600083015261341f81612fc2565b9050919050565b6000602082019050818103600083015261343f81612fe5565b9050919050565b6000602082019050818103600083015261345f81613008565b9050919050565b6000602082019050818103600083015261347f8161302b565b9050919050565b6000602082019050818103600083015261349f8161304e565b9050919050565b600060208201905081810360008301526134bf81613071565b9050919050565b600060208201905081810360008301526134df81613094565b9050919050565b600060208201905081810360008301526134ff816130b7565b9050919050565b6000602082019050818103600083015261351f816130fd565b9050919050565b6000602082019050818103600083015261353f81613120565b9050919050565b6000602082019050818103600083015261355f81613143565b9050919050565b6000602082019050818103600083015261357f81613166565b9050919050565b600060208201905061359b6000830184613198565b92915050565b60006135ab6135bc565b90506135b782826138ac565b919050565b6000604051905090565b600067ffffffffffffffff8211156135e1576135e06139e4565b5b6135ea82613a13565b9050602081019050919050565b600067ffffffffffffffff821115613612576136116139e4565b5b61361b82613a13565b9050602081019050919050565b6000819050602082019050919050565b600081519050919050565b600081519050919050565b600081519050919050565b6000602082019050919050565b600082825260208201905092915050565b600082825260208201905092915050565b600081905092915050565b600082825260208201905092915050565b600081905092915050565b60006136ba8261382e565b91506136c58361382e565b9250827fffffffffffffffffffffffffffffffffffffffffffffffffffffffffffffffff038211156136fa576136f9613957565b5b828201905092915050565b60006137108261382e565b915061371b8361382e565b92508261372b5761372a613986565b5b828204905092915050565b60006137418261382e565b915061374c8361382e565b9250817fffffffffffffffffffffffffffffffffffffffffffffffffffffffffffffffff048311821515161561378557613784613957565b5b828202905092915050565b600061379b8261382e565b91506137a68361382e565b9250828210156137b9576137b8613957565b5b828203905092915050565b60006137cf8261380e565b9050919050565b60008115159050919050565b60007fffffffff0000000000000000000000000000000000000000000000000000000082169050919050565b600073ffffffffffffffffffffffffffffffffffffffff82169050919050565b6000819050919050565b82818337600083830152505050565b60005b8381101561386557808201518184015260208101905061384a565b83811115613874576000848401525b50505050565b6000600282049050600182168061389257607f821691505b602082108114156138a6576138a56139b5565b5b50919050565b6138b582613a13565b810181811067ffffffffffffffff821117156138d4576138d36139e4565b5b80604052505050565b60006138e88261382e565b91507fffffffffffffffffffffffffffffffffffffffffffffffffffffffffffffffff82141561391b5761391a613957565b5b600182019050919050565b60006139318261382e565b915061393c8361382e565b92508261394c5761394b613986565b5b828206905092915050565b7f4e487b7100000000000000000000000000000000000000000000000000000000600052601160045260246000fd5b7f4e487b7100000000000000000000000000000000000000000000000000000000600052601260045260246000fd5b7f4e487b7100000000000000000000000000000000000000000000000000000000600052602260045260246000fd5b7f4e487b7100000000000000000000000000000000000000000000000000000000600052604160045260246000fd5b6000601f19601f8301169050919050565b7f455243373231456e756d657261626c653a206f776e657220696e646578206f7560008201527f74206f6620626f756e6473000000000000000000000000000000000000000000602082015250565b7f4552433732313a207472616e7366657220746f206e6f6e20455243373231526560008201527f63656976657220696d706c656d656e7465720000000000000000000000000000602082015250565b7f4f776e61626c653a206e6577206f776e657220697320746865207a65726f206160008201527f6464726573730000000000000000000000000000000000000000000000000000602082015250565b7f4552433732313a207472616e736665722066726f6d20696e636f72726563742060008201527f6f776e6572000000000000000000000000000000000000000000000000000000602082015250565b7f4552433732313a20746f6b656e20616c7265616479206d696e74656400000000600082015250565b7f596f75206e656564206d6f726520657468657221000000000000000000000000600082015250565b7f4552433732313a207472616e7366657220746f20746865207a65726f2061646460008201527f7265737300000000000000000000000000000000000000000000000000000000602082015250565b7f4552433732313a20617070726f766520746f2063616c6c657200000000000000600082015250565b7f43616e6e6f74206d696e7420737065636966696564206e756d626572206f662060008201527f4e4654732e000000000000000000000000000000000000000000000000000000602082015250565b7f4552433732313a206f70657261746f7220717565727920666f72206e6f6e657860008201527f697374656e7420746f6b656e0000000000000000000000000000000000000000602082015250565b7f4552433732313a20617070726f76652063616c6c6572206973206e6f74206f7760008201527f6e6572206e6f7220617070726f76656420666f7220616c6c0000000000000000602082015250565b7f4552433732313a2062616c616e636520717565727920666f7220746865207a6560008201527f726f206164647265737300000000000000000000000000000000000000000000602082015250565b7f4552433732313a206f776e657220717565727920666f72206e6f6e657869737460008201527f656e7420746f6b656e0000000000000000000000000000000000000000000000602082015250565b7f4552433732313a206d696e7420746f20746865207a65726f2061646472657373600082015250565b7f4e6f206574686572206c65667420746f20776974686472617700000000000000600082015250565b7f4552433732313a20617070726f76656420717565727920666f72206e6f6e657860008201527f697374656e7420746f6b656e0000000000000000000000000000000000000000602082015250565b7f4f776e61626c653a2063616c6c6572206973206e6f7420746865206f776e6572600082015250565b7f4552433732314d657461646174613a2055524920717565727920666f72206e6f60008201527f6e6578697374656e7420746f6b656e0000000000000000000000000000000000602082015250565b7f4552433732313a20617070726f76616c20746f2063757272656e74206f776e6560008201527f7200000000000000000000000000000000000000000000000000000000000000602082015250565b50565b7f5472616e73666572206661696c65642e00000000000000000000000000000000600082015250565b7f4552433732313a207472616e736665722063616c6c6572206973206e6f74206f60008201527f776e6572206e6f7220617070726f766564000000000000000000000000000000602082015250565b7f455243373231456e756d657261626c653a20676c6f62616c20696e646578206f60008201527f7574206f6620626f756e64730000000000000000000000000000000000000000602082015250565b7f4d696e7420697320636f6d706c65746521000000000000000000000000000000600082015250565b614019816137c4565b811461402457600080fd5b50565b614030816137d6565b811461403b57600080fd5b50565b614047816137e2565b811461405257600080fd5b50565b61405e8161382e565b811461406957600080fd5b5056fea2646970667358221220b87f98c42548ad9fdb2198d38fa6e7c8e88a7ece3ada93caa6d703af7dbc7b6264736f6c63430008010033",
  "linkReferences": {},
  "deployedLinkReferences": {}
}